:042000001FEF10F0CE
:08200800000E936E0D0E046E34
:1020100030EF10F0EA6A070EE96EEF500EE00F0E97
:10202000016E006A002EFED7012EFBD78F0E006EC8
:10203000002EFED70000EF2EF2D741EF10F0F86A25
:10204000D09E700ED36ED26A9B6A0F015B6B5C6B85
:102050005D6B5E6B5F6B9A6A996A986A0001D4D770
:10206000D8900434066E006A04BE0080005006104A
:10207000046E936A04C08AFF020E066EFA0E076EA3
:0A208000C9D7062EFBD7ECD70300EA
:020000040030CA
:0E00000023C85E3C00D3A1000FC00FE00F40EC
:00000001FF
;PIC18F45K50
;CRC=DD15  CREATED="01-dic.-20 09:52"
