:042000001FEF10F0CE
:08200800000E936E0D0E046E34
:1020100028EF10F0EA6A070EE96EEF500EE00F0E9F
:10202000016E006A002EFED7012EFBD78F0E006EC8
:10203000002EFED70000EF2EF2D739EF10F0F86A2D
:10204000D09EC150C00B0F09C16E070EB46EDCD715
:10205000D8900434066E006A04BE0080005006105A
:10206000046E936A04C08AFF020E066EFA0E076EB3
:0A207000D1D7062EFBD7ECD70300F2
:020000040030CA
:0E00000007CC261E0087A1000FC00FE00F40A6
:00000001FF
;PIC18F4550
;CRC=11B7  CREATED="01-dic.-20 09:53"
